:100000006F00A05400000000780200007A02000097
:1000100000000000000000000000000000000000E0
:1000200000000000000000000000000000000000D0
:100030004805000000000000480500000000000026
:10004000480500004805000048050000480500007C
:10005000480500004805000048050000480500006C
:10006000480500004805000048050000480500005C
:10007000480500004805000048050000480500004C
:10008000480500004805000048050000480500003C
:100090004805000048050000480500000000000079
:1000A000511126C022C206C4828282441244A24058
:1000B00031018280634E050263C305042E86AA8542
:1000C0007D5515C285466378B6006356C0000606A6
:1000D0008606E36CB6FE014563E4C500918D558D3F
:1000E00085820582F5FA82808682C93F2E858282CA
:1000F0003305A04063D70500B305B040C1B7B305D1
:10010000B0408682653F3305A0408282868263C705
:100110000500634905005D372E858282B305B04036
:10012000E35B05FE3305A040513F3305B0408282BA
:10013000000085476391F504B717014013870780D6
:100140006319E500371702401C4F93E747001CCFA7
:1001500082806318F500371702401C4F93E70701B0
:10016000FDB793870740E315F5FE371702401C4F94
:1001700093E70702E9BFE9FDB7170140138707803E
:100180006317E500371702401C4FED9BC9B7631793
:10019000F500371702401C4FBD9B55BF93870740A2
:1001A000E318F5FA371702401C4F93F7F7FD45B7F0
:1001B000EFF21FEF2A8408418545A53F50300D47D7
:1001C00014405C206367C7028C428A073D4733179F
:1001D000F7001347F7FF6D8F98C28C427820138584
:1001E0002700B317F6003317A700CD8FD98F9CC215
:1001F0006DBDB7150140138505800147638CA600CE
:1002000009476389B600938505400D476384B600AE
:100210001307F00FB70601408C46139517003317EC
:10022000A7004D8F98C603A706400545B317F500F4
:100230005D8F23A0E640154793850640631BE600CB
:10024000D8455D8FD8C5984593C7F7FFF98F9CC5F2
:1002500045B71147E31EE6F898455D8F98C5D84528
:1002600093C7F7FFF98FDCC561B758458547B3954C
:10027000B700B98D4CC5828001A0B707EFBE37E744
:1002800000E0938707083CC701A0EFF27FE111650A
:10029000111185451305050202C002C202C402C63F
:1002A00002C802CA02CC4929930700027C80371495
:1002B00001408D473EC28A85E147130504403EC494
:1002C0009126930700047C808A859147130504409A
:1002D0003EC40D2EF16737440140938707203EC688
:1002E0006C00B7070C00130504803ECA02C8231C2B
:1002F000010095218545130504800D23710175B317
:10030000EFF21FDA61110545A52ED92A8123716507
:1003100013050520952BB707002083A50701371586
:100320000000130585F2EF009039C12CAA8537151E
:100330000000130585F3EF009038813FB7170140A7
:100340003EC00A85930710107C82230301008D357F
:1003500037150000130585F4EF009038374401404D
:100360009305000213050480E9290DCD13050480CF
:10037000E9219374F50F1375F50F9345F5FFC20549
:1003800013050480C18175211304048093050008BE
:100390002285452965DDB7170000A6851385C7F5B9
:1003A000EF00F031854537150140C13545BFEFF20B
:1003B0003FCF371402401C403707FFF8611193E725
:1003C00017001CC05C404145F98F5CC01C403707DA
:1003D000F7FE7D17F98F1CC01C403707FCFF7D1707
:1003E000F98F1CC05C4041777D17F98F5CC0B7075F
:1003F0009F001CC4592C1C4C3706020093E70702CF
:100400001CCCB717014003A707409386074013771A
:10041000F7F023A0E74003A707401367070823A0CE
:10042000E74089479CCA02C002C21C4C3707014002
:10043000A16693E717001CCC5C43D58F5CC31C40BE
:100440004167B7160240D98F1CC009679C42F18FE3
:100450003EC2824785073EC0924781E78247E397C5
:10046000E7FEB71702409C431397E700635807065F
:1004700085473EC2124785476310F706B7270240FB
:100480009843C176FD16719B98C398431367170074
:1004900098C3B7170240D843D8C3D843758FD8C381
:1004A000D843C166558FD8C39843B7060001558F0E
:1004B00098C3984393166700E3DD06FED843B7164A
:1004C0000240719BD8C3D84313672700D8C3214784
:1004D000DC42B18BE39EE7FE2101C1BE02C259BFDF
:1004E000EFF21FBC371702405C43370400209146EF
:1004F000B18B130404016385D700A1466380D70440
:10050000B7376E01938707601CC0B7160240DC4204
:100510000840918313F7F700B7070020938707007F
:10052000BA978C23DC4293F5F50F93F707083357FE
:10053000B50099E361362A8718C085BE5C43B7775A
:10054000DC02938707C0C9B701A0970100209381FF
:10055000E12E138181FC1305000A97050020938585
:1005600065AA170600201306E6A963FAC5008322D0
:10057000050023A0550011059105E3EAC5FE1715F6
:100580000000130525A0970500209385A5A7170651
:1005900000201306A6AA63FAC5008322050023A043
:1005A000550011059105E3EAC5FE17050020130566
:1005B000E5A8938581806377B500232005001105A8
:1005C000E36DB5FEB722000093820288739002307B
:1005D0008D4273904280970200009382A2A293E220
:1005E000320073905230EFF09FDC9702000093824C
:1005F00062D17390123473002030B7F7FF1F03A548
:10060000477C8280944593F7060193F2F60081C7F8
:10061000DC41B3E2F20083D3050093F7F30FA5C3E7
:1006200003230500611122C226C081471304800202
:100630009304800405473316F70033F7C3006312B1
:10064000E602939527003D473317B7001347F7FF9E
:1006500033736700B395B20033E36500639D860092
:1006600050C985072147E397E7FC12442320650022
:10067000824421018280E39696FE10C9DDB7828014
:10068000B707002023ACA7028280371702401C4323
:100690000E0593F777F05D8D08C38280EFF25FA0BF
:1006A000371702405C4391462A84B18B6385D7009B
:1006B000A146638DD706B7376E01938707601CC0CC
:1006C000B7160240DC42918313F7F700B70700200A
:1006D00093878702BA978C23DC42184093F5F50F75
:1006E00093F707083355B70099E33A85C13A48C0F4
:1006F00008C448C4B7170240DC438D46AD83FD8B68
:1007000013D737008A07F18BD98F13F6370113F708
:10071000370063F4C600138747FFB70700209387AD
:100720004701BA978C23593A08C841B25C43B7775E
:10073000DC02938707C061B799C5371702401C4F89
:100740005D8D08CF8280B7170240984F1345F5FFA3
:10075000798D88CF8280EFF2BF941629F577FD1747
:10076000F58FF621DA252111D58F1EA95625FD77A3
:100770009387379FF58FD6212A842EC0D58F962553
:10078000D58FB625D58F5EA55E29C207C18393F7A5
:10079000F7CF5D8F5AA948001137B74701409387BB
:1007A00007808245631FF404C2475A24139517003B
:1007B0003E9542070E0541873E958C4163550704DF
:1007C0008605ED38930540062AC0CD38824793143C
:1007D0004500930540063E85013A5E24C207C18765
:1007E00063D507020E059305400613052503EFF0B8
:1007F000FF8C1D89C98CC204C18006A461016FF001
:10080000DF8AB2475DB78A056DBF120593054006C2
:1008100013052503EFF09F8A3D89E9BF91C55E2549
:100820000967D98F5EA582805A25F977FD17F98F60
:10083000D5BF93F5F51F4EA182804A211375F51F90
:1008400082800A216D8D3335A0008280EFF25F85B2
:10085000B707002003A50701B7157A009385052087
:10086000EFF0DF851375F50FB7070020238FA70280
:1008700093175500898F8A073E950E05B70700200C
:10088000239EA7026FF07F82EFF29F812A84116579
:1008900011118545130505024535930700027C803B
:1008A000371501408D473EC28A85E1471305054053
:1008B0003EC4893B22C637440140B70708006C009C
:1008C000130504803ECA02C8231C01006935854512
:1008D00013050480A13771016FF02FFDEFF24FFC7B
:1008E0007111AE840144635DC402B74701401387B0
:1008F00007803A859305000432C0A137B74701400D
:1009000013870780024675D5338784008305070067
:10091000138507800504C205C181213F0246E1B766
:10092000328511016FF06FF8411106C62EC00DCD52
:100930001841AA8705C358417D5511CB8546631BD5
:10094000D70098472300070023A207000545B240BF
:10095000410182809847824614A39847050798C7AB
:10096000D8437D17D8C3DDB705468A85853FF9BFD3
:10097000011122CC2EC206CE26CA2A8481479305B5
:100980000002634506029245BE95838505008DE50C
:1009900063D8C70263D4E702198E1305000293F5EA
:1009A00026002AC089C501E7930500032EC0858A69
:1009B000814495EAB2840DA08507F1B71D8EF1BF81
:1009C0000146E1BF824522853AC832C63EC4A93FEE
:1009D000A24732464247FD14E34690FEB284635379
:1009E00006008144058E63C7E702A68792463387D7
:1009F000974036978305070095EDB28463449004D1
:100A0000635306000146F2406244D2443305F600C7
:100A1000056182801D8FBA8793050003228532C845
:100A20003EC63AC41137B24722474246FD17EDF79A
:100A3000BA9465BF228532C63EC4FD35A247324610
:100A400085076DB78245228532C43EC2F13DFD1453
:100A50002246924765B7397106DE22DC26DA3EC2AD
:100A600032833A8689ED92469307000301476C086A
:100A7000FC86FD3DF2506254D25421618280AA84EA
:100A80003684AE8791CA294701446317E30063D5D2
:100A90000500B307B04005448646A30901021307C9
:100AA0003103938666FC36C49A853E8532CA3AC8BD
:100AB0001AC63EC0EFF04FE3A54682473243424795
:100AC000524663D4A600A246369513050503930645
:100AD000F7FFA30FA7FE9A853E8532CC3ACA1AC803
:100AE0003EC636C0EFF08FDDB24742435247624602
:100AF00063F9670401CC29CA9247898BB1C7930572
:100B0000D002268532C40D3522467D169247918B40
:100B100095C306479307100632C493050003268544
:100B2000631EF7021135930580072685F53B2246A3
:100B3000090479161647924682452685153D229569
:100B400015BFAA8702478DB782469307D00201449A
:100B5000A38FF6FE9307E7FF3EC04DBFF133930529
:100B60008005E1B70145828001458280130181FD46
:100B700022D026CE06D22AC4AE82328402C6814456
:100B80008385020089EDA24781C781453E85693B87
:100B9000925002542685F244130181028280930709
:100BA00050026388F500224516C88504B53BC24251
:100BB00039A88387120013871200639CB70022456F
:100BC000930550023AC88D3342478504BA828502A4
:100BD00045BFD5DB9306B0026389D70463C8F6002E
:100BE000930630026386D704814705A09306D0029E
:100BF000638AD70093060003E398D7FE1387220089
:100C0000894721A013872200854783060700130622
:100C1000B0026383C6046341D60213063002638BBD
:100C2000C602BA820145A54681A0138722006DBF86
:100C3000138722009147D1BF1306D0026389C600F3
:100C400013060003E39FC6FC93E7270031A00507C6
:100C50008547C1BF93E747000507E1B71316250095
:100C6000329506053A95850203860200130706FDB4
:100C70009375F70FE3F4B6FE1307E0029946631E7F
:100C8000E60085028146A54503860200130606FD9F
:100C90001377F60F63F5E50236C6038702001306E5
:100CA000A006630DC70A6343E6021306C004630788
:100CB000C70A13068006630CC70881452DA8139741
:100CC0002600BA968606B29685027DBF13064007B7
:100CD0006306C7081306A0076302C7081306C00609
:100CE0008145631AC700038612008D456314E60030
:100CF00085029145850203860200930300061307CF
:100D0000100663C4C300130710049303700663C482
:100D1000C30693035006635376189303700463C1AC
:100D2000C30493055004635BB61613073004E31045
:100D3000E6EA18409303440016CA230CE1001EC8DB
:100D4000A30C01000147BE862A862C0849A8038609
:100D500012008145E311E6FA890271BF8502B1BF35
:100D600093063006E307D6FC63CEC60693068005DD
:100D70006303D602A9BD930630076304D60463CB90
:100D8000C6029306F0066302D60E9306000793E7A9
:100D90004700E31ED6E29146639FD50A9303840081
:100DA0000C40504016CA3AC23EC01EC8AA8701472E
:100DB000C146B9A0930650076308D606930680077C
:100DC00045BF1840B716000093034400938586F78B
:100DD00011C3BA85324716CA1EC8BE862A86224566
:100DE000413E0DA091466394D502930384000C40CC
:100DF000504016CA3AC23EC01EC8AA870547A94637
:100E000022458D33C243AA941E84D242C9B3B2464E
:100E10000C4016C836C23AC011042A8785462946B6
:100E200022451539AA9461B39146639DD500930379
:100E300084000C40504016CA3AC23EC01EC8AA8761
:100E4000014775BFB2460C4016C836C23AC01104FD
:100E50002A878146E9B7B24616C80C40414636C2D9
:100E60003AC011042A87814665BF9146639ED5002A
:100E7000930384000C40504016CA3AC23EC01EC8BC
:100E8000AA870147A146ADBFB2460C4016C836C27C
:100E90003AC011042A878146214659B70C401306EF
:100EA000840040403AC22A87224532C83EC022868A
:100EB000B687A94616CA4D39AA944244B9B7130158
:100EC000C1FD2EC832CAAA851008014506C636CC17
:100ED0003ACE3ED032C05939B2401301410282802D
:100EE000411122C426C206C61C21AA840144DC8109
:100EF00083073100050491EFA947930531000546AA
:100F00000145DC81E13A2285B2402244924441010C
:100F100082800546930531000145C932B3878400BC
:100F20009C23DC81F1B7000053797374656D436CC9
:100F30006B3A25640D0A00004368697049443A25FC
:100F40003038780D0A0000004750494F20696E691B
:100F50007469616C697A6564210D0000526563658E
:100F60006976656420616E6420696E766572746569
:100F7000643A2025780D0A00286E756C6C290000F3
:100F80000102030405060708010203040506070819
:100F9000006CDC020204060804080C10081018207B
:100FA000102030402040608001020304050607083D
:080FB000010203040506070815
:00000001FF
